{
  "contractName": "PlantMonitor",
  "abi": [
    {
      "constant": true,
      "inputs": [
        {
          "name": "",
          "type": "uint256"
        }
      ],
      "name": "plants",
      "outputs": [
        {
          "name": "humidity",
          "type": "uint256"
        },
        {
          "name": "temperature",
          "type": "uint256"
        },
        {
          "name": "isHealthy",
          "type": "bool"
        }
      ],
      "payable": false,
      "stateMutability": "view",
      "type": "function"
    },
    {
      "constant": false,
      "inputs": [
        {
          "name": "_plantId",
          "type": "uint256"
        },
        {
          "name": "_humidity",
          "type": "uint256"
        },
        {
          "name": "_temperature",
          "type": "uint256"
        },
        {
          "name": "_isHealthy",
          "type": "bool"
        }
      ],
      "name": "updatePlantData",
      "outputs": [],
      "payable": false,
      "stateMutability": "nonpayable",
      "type": "function"
    },
    {
      "constant": true,
      "inputs": [
        {
          "name": "_plantId",
          "type": "uint256"
        }
      ],
      "name": "getPlantData",
      "outputs": [
        {
          "name": "",
          "type": "uint256"
        },
        {
          "name": "",
          "type": "uint256"
        },
        {
          "name": "",
          "type": "bool"
        }
      ],
      "payable": false,
      "stateMutability": "view",
      "type": "function"
    }
  ],
  "bytecode": "0x608060405234801561001057600080fd5b506102e0806100206000396000f3fe608060405260043610610051576000357c010000000000000000000000000000000000000000000000000000000090048063296b220a146100565780636bb37cea146100b75780638dd2361c14610112575b600080fd5b34801561006257600080fd5b5061008f6004803603602081101561007957600080fd5b8101908080359060200190929190505050610173565b6040518084815260200183815260200182151515158152602001935050505060405180910390f35b3480156100c357600080fd5b50610110600480360360808110156100da57600080fd5b810190808035906020019092919080359060200190929190803590602001909291908035151590602001909291905050506101ec565b005b34801561011e57600080fd5b5061014b6004803603602081101561013557600080fd5b8101908080359060200190929190505050610259565b6040518084815260200183815260200182151515158152602001935050505060405180910390f35b6000806000610180610290565b6000808681526020019081526020016000206060604051908101604052908160008201548152602001600182015481526020016002820160009054906101000a900460ff1615151515815250509050806000015181602001518260400151935093509350509193909250565b606060405190810160405280848152602001838152602001821515815250600080868152602001908152602001600020600082015181600001556020820151816001015560408201518160020160006101000a81548160ff02191690831515021790555090505050505050565b60006020528060005260406000206000915090508060000154908060010154908060020160009054906101000a900460ff16905083565b6060604051908101604052806000815260200160008152602001600015158152509056fea165627a7a72305820a6666807b640d60fadb2f2a39c58698353936de388e8c7150fa7ea07cc6223750029",
  "source": "// SPDX-License-Identifier: MIT\r\n\r\npragma solidity >=0.4.22 <0.9.0;\r\n\r\ncontract PlantMonitor {\r\n\r\n    struct Plant {\r\n        uint256 humidity;\r\n        uint256 temperature;\r\n        bool isHealthy;\r\n    }\r\n\r\n    // Mapping to store plant data against plant ID\r\n    mapping(uint256 => Plant) public plants;\r\n\r\n    // Function to update plant data\r\n    function updatePlantData(uint256 _plantId, uint256 _humidity, uint256 _temperature, bool _isHealthy) public {\r\n        plants[_plantId] = Plant(_humidity, _temperature, _isHealthy);\r\n    }\r\n\r\n    // Function to get plant data\r\n    function getPlantData(uint256 _plantId) public view returns (uint256, uint256, bool) {\r\n        Plant memory plant = plants[_plantId];\r\n        return (plant.humidity, plant.temperature, plant.isHealthy);\r\n    }\r\n}",
  "sourcePath": "C:\\Users\\VRUSHANK\\Desktop\\AI-Agriculture\\truffle\\contracts\\plantMonitor.sol",
  "compiler": {
    "name": "solc",
    "version": "0.5.1+commit.c8a2cb62.Emscripten.clang"
  },
  "schemaVersion": "3.4.16",
  "updatedAt": "2024-04-23T05:39:32.532Z",
  "networkType": "ethereum",
  "devdoc": {
    "methods": {}
  },
  "userdoc": {
    "methods": {}
  }
}