{
  "contractName": "PlantMonitor",
  "abi": [
    {
      "constant": true,
      "inputs": [
        {
          "name": "",
          "type": "uint256"
        }
      ],
      "name": "dataPoints",
      "outputs": [
        {
          "name": "timestamp",
          "type": "uint256"
        },
        {
          "name": "temperature",
          "type": "uint256"
        },
        {
          "name": "humidity",
          "type": "uint256"
        },
        {
          "name": "moisture",
          "type": "uint256"
        }
      ],
      "payable": false,
      "stateMutability": "view",
      "type": "function"
    },
    {
      "anonymous": false,
      "inputs": [
        {
          "indexed": true,
          "name": "timestamp",
          "type": "uint256"
        },
        {
          "indexed": false,
          "name": "temperature",
          "type": "uint256"
        },
        {
          "indexed": false,
          "name": "humidity",
          "type": "uint256"
        },
        {
          "indexed": false,
          "name": "moisture",
          "type": "uint256"
        }
      ],
      "name": "DataPointAdded",
      "type": "event"
    },
    {
      "constant": false,
      "inputs": [
        {
          "name": "_temperature",
          "type": "uint256"
        },
        {
          "name": "_humidity",
          "type": "uint256"
        },
        {
          "name": "_moisture",
          "type": "uint256"
        }
      ],
      "name": "addDataPoint",
      "outputs": [],
      "payable": false,
      "stateMutability": "nonpayable",
      "type": "function"
    },
    {
      "constant": true,
      "inputs": [],
      "name": "getDataPointCount",
      "outputs": [
        {
          "name": "",
          "type": "uint256"
        }
      ],
      "payable": false,
      "stateMutability": "view",
      "type": "function"
    },
    {
      "constant": true,
      "inputs": [
        {
          "name": "_index",
          "type": "uint256"
        }
      ],
      "name": "getDataPoint",
      "outputs": [
        {
          "name": "timestamp",
          "type": "uint256"
        },
        {
          "name": "temperature",
          "type": "uint256"
        },
        {
          "name": "humidity",
          "type": "uint256"
        },
        {
          "name": "moisture",
          "type": "uint256"
        }
      ],
      "payable": false,
      "stateMutability": "view",
      "type": "function"
    }
  ],
  "bytecode": "0x608060405234801561001057600080fd5b50610417806100206000396000f3fe60806040526004361061005c576000357c0100000000000000000000000000000000000000000000000000000000900480630fa65d091461006157806397ae08df1461008c578063a6782b4b146100f0578063e9dca1db14610154575b600080fd5b34801561006d57600080fd5b506100766101a3565b6040518082815260200191505060405180910390f35b34801561009857600080fd5b506100c5600480360360208110156100af57600080fd5b81019080803590602001909291905050506101af565b6040518085815260200184815260200183815260200182815260200194505050505060405180910390f35b3480156100fc57600080fd5b506101296004803603602081101561011357600080fd5b81019080803590602001909291905050506102b0565b6040518085815260200184815260200183815260200182815260200194505050505060405180910390f35b34801561016057600080fd5b506101a16004803603606081101561017757600080fd5b810190808035906020019092919080359060200190929190803590602001909291905050506102ef565b005b60008080549050905090565b60008060008060008054905085101515610231576040517f08c379a00000000000000000000000000000000000000000000000000000000081526004018080602001828103825260128152602001807f496e646578206f7574206f662072616e6765000000000000000000000000000081525060200191505060405180910390fd5b6102396103c2565b60008681548110151561024857fe5b906000526020600020906004020160806040519081016040529081600082015481526020016001820154815260200160028201548152602001600382015481525050905080600001518160200151826040015183606001519450945094509450509193509193565b6000818154811015156102bf57fe5b90600052602060002090600402016000915090508060000154908060010154908060020154908060030154905084565b6102f76103c2565b6080604051908101604052804281526020018581526020018481526020018381525090506000819080600181540180825580915050906001820390600052602060002090600402016000909192909190915060008201518160000155602082015181600101556040820151816002015560608201518160030155505050427fb6672b48013fdaec88f7f0318791424c24b1d61a41f18f4d0b47f05c50b9a3c785858560405180848152602001838152602001828152602001935050505060405180910390a250505050565b60806040519081016040528060008152602001600081526020016000815260200160008152509056fea165627a7a72305820a4db1716a27192dc9bb331cd07ad0cade93f795a900070c0dc056b61808371470029",
  "source": "// SPDX-License-Identifier: MIT\r\n\r\npragma solidity >=0.4.22 <0.9.0;\r\n\r\ncontract PlantMonitor {\r\n    // Struct to represent a data point\r\n    struct DataPoint {\r\n        uint timestamp;\r\n        uint temperature;\r\n        uint humidity;\r\n        uint moisture;\r\n    }\r\n\r\n    // Array to store all data points\r\n    DataPoint[] public dataPoints;\r\n\r\n    // Event emitted when a new data point is added\r\n    event DataPointAdded(uint indexed timestamp, uint temperature, uint humidity, uint moisture);\r\n\r\n    // Function to add a new data point\r\n    function addDataPoint(uint _temperature, uint _humidity, uint _moisture) public {\r\n        DataPoint memory newPoint = DataPoint(block.timestamp, _temperature, _humidity, _moisture);\r\n        dataPoints.push(newPoint);\r\n        emit DataPointAdded(block.timestamp, _temperature, _humidity, _moisture);\r\n    }\r\n\r\n    // Function to get the number of data points\r\n    function getDataPointCount() public view returns (uint) {\r\n        return dataPoints.length;\r\n    }\r\n\r\n    // Function to get the data point at a specific index\r\n    function getDataPoint(uint _index) public view returns (uint timestamp, uint temperature, uint humidity, uint moisture) {\r\n        require(_index < dataPoints.length, \"Index out of range\");\r\n        DataPoint memory point = dataPoints[_index];\r\n        return (point.timestamp, point.temperature, point.humidity, point.moisture);\r\n    }\r\n}",
  "sourcePath": "C:\\Users\\VRUSHANK\\Desktop\\AI-Agriculture\\truffle\\contracts\\plantMonitor.sol",
  "compiler": {
    "name": "solc",
    "version": "0.5.1+commit.c8a2cb62.Emscripten.clang"
  },
  "schemaVersion": "3.4.16",
  "updatedAt": "2024-04-26T05:24:57.991Z",
  "networkType": "ethereum",
  "devdoc": {
    "methods": {}
  },
  "userdoc": {
    "methods": {}
  }
}